{
  "contractName": "studentStorage",
  "abi": [
    {
      "inputs": [],
      "name": "age",
      "outputs": [
        {
          "internalType": "uint256",
          "name": "",
          "type": "uint256"
        }
      ],
      "stateMutability": "view",
      "type": "function",
      "constant": true
    },
    {
      "inputs": [],
      "name": "name",
      "outputs": [
        {
          "internalType": "string",
          "name": "",
          "type": "string"
        }
      ],
      "stateMutability": "view",
      "type": "function",
      "constant": true
    },
    {
      "inputs": [
        {
          "internalType": "string",
          "name": "_name",
          "type": "string"
        },
        {
          "internalType": "uint256",
          "name": "_age",
          "type": "uint256"
        }
      ],
      "name": "setStudent",
      "outputs": [],
      "stateMutability": "nonpayable",
      "type": "function"
    },
    {
      "inputs": [],
      "name": "getStudent",
      "outputs": [
        {
          "internalType": "string",
          "name": "",
          "type": "string"
        },
        {
          "internalType": "uint256",
          "name": "",
          "type": "uint256"
        }
      ],
      "stateMutability": "view",
      "type": "function",
      "constant": true
    }
  ],
  "bytecode": "0x608060405234801561001057600080fd5b50610832806100206000396000f3fe608060405234801561001057600080fd5b5060043610610069576000357c01000000000000000000000000000000000000000000000000000000009004806306fdde031461006e578063262a9dff1461008c5780639b4d52dd146100aa578063b439548d146100c6575b600080fd5b6100766100e5565b60405161008391906102c1565b60405180910390f35b610094610173565b6040516100a191906102fc565b60405180910390f35b6100c460048036038101906100bf919061048c565b610179565b005b6100ce610194565b6040516100dc9291906104e8565b60405180910390f35b600180546100f290610547565b80601f016020809104026020016040519081016040528092919081815260200182805461011e90610547565b801561016b5780601f106101405761010080835404028352916020019161016b565b820191906000526020600020905b81548152906001019060200180831161014e57829003601f168201915b505050505081565b60005481565b80600081905550816001908161018f919061072a565b505050565b6060600060016000548180546101a990610547565b80601f01602080910402602001604051908101604052809291908181526020018280546101d590610547565b80156102225780601f106101f757610100808354040283529160200191610222565b820191906000526020600020905b81548152906001019060200180831161020557829003601f168201915b50505050509150915091509091565b600081519050919050565b600082825260208201905092915050565b60005b8381101561026b578082015181840152602081019050610250565b60008484015250505050565b6000601f19601f8301169050919050565b600061029382610231565b61029d818561023c565b93506102ad81856020860161024d565b6102b681610277565b840191505092915050565b600060208201905081810360008301526102db8184610288565b905092915050565b6000819050919050565b6102f6816102e3565b82525050565b600060208201905061031160008301846102ed565b92915050565b6000604051905090565b600080fd5b600080fd5b600080fd5b600080fd5b7f4e487b7100000000000000000000000000000000000000000000000000000000600052604160045260246000fd5b61036d82610277565b810181811067ffffffffffffffff8211171561038c5761038b610335565b5b80604052505050565b600061039f610317565b90506103ab8282610364565b919050565b600067ffffffffffffffff8211156103cb576103ca610335565b5b6103d482610277565b9050602081019050919050565b82818337600083830152505050565b60006104036103fe846103b0565b610395565b90508281526020810184848401111561041f5761041e610330565b5b61042a8482856103e1565b509392505050565b600082601f8301126104475761044661032b565b5b81356104578482602086016103f0565b91505092915050565b610469816102e3565b811461047457600080fd5b50565b60008135905061048681610460565b92915050565b600080604083850312156104a3576104a2610321565b5b600083013567ffffffffffffffff8111156104c1576104c0610326565b5b6104cd85828601610432565b92505060206104de85828601610477565b9150509250929050565b600060408201905081810360008301526105028185610288565b905061051160208301846102ed565b9392505050565b7f4e487b7100000000000000000000000000000000000000000000000000000000600052602260045260246000fd5b6000600282049050600182168061055f57607f821691505b60208210810361057257610571610518565b5b50919050565b60008190508160005260206000209050919050565b60006020601f8301049050919050565b60008160020a8302905092915050565b6000600883026105dd7fffffffffffffffffffffffffffffffffffffffffffffffffffffffffffffffff8261059d565b6105e7868361059d565b95508019841693508086168417925050509392505050565b6000819050919050565b600061062461061f61061a846102e3565b6105ff565b6102e3565b9050919050565b6000819050919050565b61063e83610609565b61065261064a8261062b565b8484546105ad565b825550505050565b600090565b61066761065a565b610672818484610635565b505050565b5b818110156106965761068b60008261065f565b600181019050610678565b5050565b601f8211156106db576106ac81610578565b6106b58461058d565b810160208510156106c4578190505b6106d86106d08561058d565b830182610677565b50505b505050565b60008160020a8304905092915050565b6000610701600019846008026106e0565b1980831691505092915050565b600061071a83836106f0565b9150826002028217905092915050565b61073382610231565b67ffffffffffffffff81111561074c5761074b610335565b5b6107568254610547565b61076182828561069a565b600060209050601f8311600181146107945760008415610782578287015190505b61078c858261070e565b8655506107f4565b601f1984166107a286610578565b60005b828110156107ca578489015182556001820191506020850194506020810190506107a5565b868310156107e757848901516107e3601f8916826106f0565b8355505b6001600288020188555050505b50505050505056fea2646970667358221220474c0e2072e1a7c087c7afe54dc06724db577c9c42d5f27dbf0c64c516dea24a64736f6c63430008120033",
  "immutableReferences": {},
  "source": "// SPDX-License-Identifier: GPL-3.0\npragma solidity >=0.4.22 <0.9.0;\ncontract studentStorage {\n    uint public age;\n    string public name;\n    function setStudent(string memory _name, uint _age) public {\n        age = _age;\n        name = _name;\n    }\n    function getStudent() public view returns (string memory, uint) {\n        return (name, age);\n    }\n}",
  "sourcePath": "/Users/admin/Documents/lc-file/web3//lcToen/contracts/studentStorage.sol",
  "compiler": {
    "name": "solc",
    "version": "0.8.18+commit.87f61d96.Emscripten.clang"
  },
  "schemaVersion": "3.4.12",
  "updatedAt": "2025-09-12T12:51:38.654Z",
  "networkType": "ethereum",
  "devdoc": {
    "kind": "dev",
    "methods": {},
    "version": 1
  },
  "userdoc": {
    "kind": "user",
    "methods": {},
    "version": 1
  }
}